:020000040800F2
:10000000F887002045010008055A0008154A000835
:10001000015A0008490C00080560000800000000B3
:10002000000000000000000000000000775C0008F5
:10003000FF0D000800000000075A0008615D00087D
:100040005F0100085F0100085F0100085F01000810
:100050005F0100085F0100085F0100085F01000800
:100060005F0100085F0100085F0100085F010008F0
:100070005F0100085F0100085F0100085F010008E0
:100080005F0100085F0100085F0100085F010008D0
:100090005F0100085F0100085F0100085F010008C0
:1000A0005F0100085F0100085F0100085F010008B0
:1000B0005F0100085F0100085F0100085F010008A0
:1000C0005F0100085F0100085F0100085F01000890
:1000D0005F0100085F0100085F0100085F01000880
:1000E0005F0100085F0100085F0100085F01000870
:1000F0005F0100085F0100085F0100085F01000860
:100100005F0100085F0100085F0100085F0100084F
:100110005F0100085F0100085F0100085F0100083F
:100120005F0100085F0100085F0100085F0100082F
:10013000DFF80CD000F088FA0048004765E60008B8
:10014000F88700200648804706480047FEE7FEE79C
:10015000FEE7FEE7FEE7FEE7FEE7FEE7FEE7FEE777
:10016000715D00083101000810B5431A934209D2AD
:100170008318881803E010F8011D03F8011D521EB2
:10018000F9D210BD40EA01039B0703D009E008C97A
:10019000121F08C0042AFAD203E011F8013B00F84C
:1001A000013B521EF9D210BDD2B201E000F8012B82
:1001B000491EFBD270470022F6E710B513460A46E7
:1001C00004461946FFF7F0FF204610BD034611F81C
:1001D000012B00F8012B002AF9D118467047F0B422
:1001E00080EA0102D40F4200B2EB410F02D2024674
:1001F000084611464A0042D0C30DDDB2C1F3C752D2
:10020000AD1A202D35DAC1F3160141F4000204B114
:100210005242C5F1200602FA06F12A411044B3EB1E
:10022000D05F23D0C4B1012DA0EBC35009DCF0BCDA
:100230004FF0004202EAC352DBB200F5000000F0CA
:1002400016B9400000F1807000EBC350A0F180703F
:1002500040EAD170490009E0490841EAC071A0EBC9
:10026000C35000F50000400800EBC350F0BC00F0A4
:10027000F5B86142012202EB4101001BF6E7F0BC38
:10028000704781F00041AAE780F00040A7E780EACC
:10029000010210B502F00043400022D04A001FD0F6
:1002A000010E01EB1261C0F35600C2F3560240F496
:1002B000000042F40002A0FB022000047F39140475
:1002C00000D0401C50EA124001D44000491EC2B286
:1002D0000C0604EBD010401C4008802A02D003E03A
:1002E000002010BD20F00100002900DA0020184392
:1002F00010BD30B480EA010202F0004530F0004247
:1003000021F0004013D090B1C30DD40DC2F31601FB
:10031000C0F31600E41A41F4000140F400027D34F9
:10032000914201D3641C00E04900002C02DA30BC89
:10033000002070474FF400000023914201D3891A36
:10034000034340084FEA4101F7D151B1914202D134
:100350004FF0004105E002D24FF0010101E06FF0E3
:10036000010103EBC450284430BC00F077B8962359
:100370000022114600F07BB800F0004220F000405F
:10038000C10DC0F3160040F400007F2901DA0020FF
:100390007047962903DCC1F19601C84001E0963907
:1003A0008840002AF4D04042704720F00040C10D40
:1003B000C0F3160040F400007F2901DA00207047E6
:1003C000962903DCC1F19601C840704796398840F0
:1003D000704700F0004230F000400AD0C10D01F536
:1003E0006071C0F3160042EA0151C2084007114390
:1003F000704700200146704701F0004330B421F0FF
:10040000004150EA010206D00A0DA2F56072C1F364
:100410001301002A02DC30BC00207047440F44EA7C
:10042000C104C100E01830BC00EBC25000F016B8A7
:1004300030B50B46014600202022012409E021FAB4
:1004400002F59D4205D303FA02F5491B04FA02F5B1
:100450002844151EA2F10102F1DC30BD0029A8BF1D
:100460007047401C490008BF20F00100704710B4DD
:10047000B0FA80FC00FA0CF050EA010404BF10BC92
:10048000704749B1CCF1200421FA04F411FA0CF1BF
:1004900018BF012121430843A3EB0C01CB1D4FEAF8
:1004A00000614FEA102042BF002010BC704700EBF3
:1004B000C35010440029A4BF10BC7047401C490021
:1004C00008BF20F0010010BC70472DE9FE4F8046A8
:1004D00081EA0300C00F0C46009021F0004123F098
:1004E0000045B8EB0200A94105D24046214690469E
:1004F0001C460B46024623F00040104347D0270D10
:10050000C7F30A00C3F30A510290401A0190402831
:100510006BDAC3F3130040F4801B0098924620B1BD
:100520000023D2EB030A63EB0B0B01985946C0F191
:100530004002504600F09AF806460D46504659468D
:10054000019A00F0B2F810EB08006141002487EA3C
:10055000115284EAE7731A4340D0009A62B3019AB9
:10056000012A4FEA075215DC001B61EB02014FF034
:10057000004202EA0752CDE90042001C41F5801119
:1005800032462B4600F0B2F803B0BDE8F08F40468B
:100590002146F9E7001B61EB0201001C41F58013C5
:1005A00000185B412018A2F5001747EB030140EA51
:1005B000D570B6196D4111E06D084FEA360645EA6F
:1005C000C0754FEA0752001B61EB0201001C41F5A8
:1005D000801149084FEA30000019514132462B463C
:1005E00003B0BDE8F04F00F072B80098012240005F
:1005F0000023D0EB020263EBE073009821464FEA40
:10060000E074B8EB000061EB0401E9E783F000431C
:100610005BE781F0004158E730B5041E71F100043A
:1006200004DB4FF00044404264EB0101141E73F1FF
:10063000000405DB1C464FF00043524263EB040309
:10064000994208BF904230BD064C074D06E0E06875
:1006500040F0010394E8070098471034AC42F6D309
:10066000FFF76AFDA8630108C8630108202A04DBBC
:10067000203A00FA02F1002070479140C2F12003B5
:1006800020FA03F3194390407047202A04DB203AF4
:1006900021FA02F00021704721FA02F3D040C2F1A2
:1006A00020029140084319467047202A06DBCB17E9
:1006B000203A41FA02F043EAE07306E041FA02F31D
:1006C000D040C2F12002914008431946704710B54E
:1006D000141E73F1000408DA401C41F10001921865
:1006E0005B411A4301D120F0010010BD2DE9F04D0E
:1006F00092469B4611B1B1FA81F202E0B0FA80F263
:1007000020329046FFF7B2FF04460F4640EA0A0047
:1007100041EA0B0153465A46084313D0114653EAA7
:10072000010019D0C8F140025046FFF7AEFF054660
:100730000E46504659464246FFF798FF084305D0FB
:10074000012004E020463946BDE8F08D0020054335
:1007500046EAE0762C4337430A986305E40AA0EBA7
:1007600008000022FD0A44EA47540A3002D500205E
:100770000146E9E7010510196941DDE9084500195D
:100780006941BDE8F04DA2E770B58C1810F8015B27
:1007900015F0070301D110F8013B2A1106D110F81A
:1007A000012B03E010F8016B01F8016B5B1EF9D11E
:1007B0002B0705D40023521E0DD401F8013BFAE7A4
:1007C00010F8013BCB1A921C03E013F8015B01F80F
:1007D000015B521EF9D5A142D8D3002070BDCA4397
:1007E0000260704721B1826842F00102826003E03A
:1007F000826822F001028260704721B1826842F46F
:100800008072826003E0826822F4807282607047A6
:1008100000B58BB00121084605F0F6F8134800F04A
:1008200021FA00200A90202008900002099040112F
:100830000690800007908020059000200490029090
:10084000012003900A4800900A4801906946074831
:1008500000F0B7FA01220221044800F0A9FA0121B0
:10086000024800F0F3F90BB000BD000008000240A0
:100870004C2401401800002010B504461248844260
:1008800008D10121401505F0DFF80021601505F0C1
:10089000DBF817E00D48844208D10121001505F06E
:1008A000D3F80021201505F0CFF80BE0084884426A
:1008B00008D10121C80305F0C7F800214FF400401A
:1008C00005F0C2F810BD00000024014000280140DE
:1008D000003C0140014600208A6802F004020AB18F
:1008E000012000E0002070470146C86C80B27047CC
:1008F0000246002013680B400BB1012000E00020ED
:100900007047000030B502460020002350680F4CAD
:1009100020400D790C6844EA05242043506090681B
:100920000B4C2040D1E902542C434D7944EA450454
:1009300020439060D06A20F470000C7C641EE4B206
:10094000234340EA0350D06230BD0000FFFEF0FFB9
:10095000FDF7F1FFF0B504460D4600200021092DFA
:1009600011DDE068A5F10A0606EB4607072606FA40
:1009700007F18843A5F10A0606EB460603FA06F1DD
:100980000843E0600CE0206905EB4507072606FAFE
:1009900007F1884305EB450603FA06F10843206199
:1009A000072A0FDA606B561E06EB86071F2606FA2B
:1009B00007F18843561E06EB860605FA06F1084342
:1009C000606322E00D2A0FDA206BD61F06EB860744
:1009D0001F2606FA07F18843D61F06EB860605FA9E
:1009E00006F10843206310E0E06AA2F10D0606EB71
:1009F00086071F2606FA07F18843A2F10D0606EBCB
:100A0000860605FA06F10843E062F0BD21B182686E
:100A100042F4A002826003E0826822F4A0028260B5
:100A20007047816841F004018160704700210160D6
:100A3000017141718160C160012101747047000042
:100A400038B5456804460146284605F0FEFA0028F8
:100A50002AD02068304A0F2819D006DC0B2824D071
:100A60000C2810D00E2851D12FE0112802D02828B0
:100A70004CD145E09268002A16D02146284601B0A4
:100A8000BDE830401047214628465268F7E728461F
:100A900001F022FA0090406E0468684601F05AFAAC
:100AA000002C01D02846A04738BD284601F014FA92
:100AB0000090683001F062F9009803216C3001F079
:100AC0006BF9684601F046FA20E0E1684868096879
:100AD0000D2902D0202913D105E0002810DD284679
:100AE0000BF04EFE06E0002804DD2846BDE8384045
:100AF0000BF046BE2846BDE8384002210BF056BE3A
:100B0000E06818B90021284600F068F82046BDE8E2
:100B1000384005F0C1BD000034010020F0B50446A6
:100B200085B08069B4F90850668A0027CDE902656E
:100B3000CDE900170490B4F90C00B4F91060C118A5
:100B4000B4F90A00B4F90E50104433462A4600F0B6
:100B500007F80546616800F04AF805B02846F0BD80
:100B60002DE9F04F85B01F46DDE911B4DDE90E56E1
:100B700090468946824602F089F94C341548CDE901
:100B80000204CDE900563B4642464946504605F030
:100B9000CFFC040018D001F09FF9102259460490B0
:100BA00005F048FC049830220B493430FFF7DCFA9A
:100BB000094D04990C3D2868486604A801F0CAF95B
:100BC000286841682046884703F04EF805B0204663
:100BD000BDE8F08F410A0008400100204FF4807208
:100BE0000029114601D005F0BFBA05F00DBA2DE974
:100BF000FF410E4605004FF0010421D002F046F9F6
:100C0000284601F069F90190876E01A8009701F06C
:100C1000A1F93146684603F055FE78B100980024EA
:100C2000B84208D0284601F057F901900099816632
:100C300001A801F08FF9284605F06EFF03F014F8C3
:100C400004B02046BDE8F08100BFFEE721B1026894
:100C500042F00102026004E002684FF6FE731A409F
:100C60000260704701684FF6FE721140016000217A
:100C7000016041608160C1604B49884208D14A49A6
:100C80000839496841F00F01474A083A51608AE043
:100C900045491431884208D143490839496841F02F
:100CA000F001414A083A51607DE03F4928318842CD
:100CB00008D13D490839496841F470613A4A083A17
:100CC000516070E038493C31884208D136490839D2
:100CD000496841F47041344A083A516063E032494E
:100CE0005031884208D130490839496841F47021AF
:100CF0002D4A083A516056E02B496431884208D1A8
:100D000029490839496841F47001274A083A516075
:100D100049E025497831884208D123490839496892
:100D200041F07061204A083A51603CE01F49884216
:100D300006D1011F096841F00F01021F116032E066
:100D40001A491431884208D11849091F096841F02D
:100D5000F001164A121F116025E01449283188421B
:100D600008D11249091F096841F470610F4A121F26
:100D7000116018E00D493C31884208D10B49091F28
:100D8000096841F47041094A121F11600BE00749DC
:100D90005031884207D10549091F096841F4702183
:100DA000024A121F11607047080002400804024006
:100DB0001AB103680B43036002E003688B430360CE
:100DC000704710B50022026847F6F0739A430C6A28
:100DD0008B6823430C6923434C6923438C69234369
:100DE000CC6923434C6A23438C6A23431A43026031
:100DF000CB6843600B6883604B68C36010BD70476D
:100E00002DE9F047456804468EB00026284601F0DB
:100E100063F800905C30B0F820A0D0F80C90D0F8C7
:100E20002480C76A006800B10668684601F092F83D
:100E300005E079682046884700283DD13F68002FAB
:100E4000F7D12068142844D009DCA0F10B00072852
:100E500039D2DFE800F0BE3989B434B4110020285B
:100E60007ED004DC17283ED01E282CD14BE026284B
:100E70003CD02A2827D110E02846E66801F02CF85B
:100E80000190717A39B9317A012904D130F87C1F87
:100E900041F48071018001A88FE0284601F01CF820
:100EA0000090E16811B1C0F8841002E0D0F884002D
:100EB000E060684601F04EF80EB0BDE8F087002E05
:100EC0007DD02846B0477AE0214628460BF0F0FC5A
:100ED000F2E705A9284600F0BFF9E068069901602D
:100EE00007994160E8E7C4F80C90E5E7E06802285C
:100EF000E2D10C95E0680D9027200A900AA9A0681D
:100F000006F0C6FCD8E7E068012804D00021284696
:100F100000F05BF9D0E7404605F03FFE58B140468F
:100F200005F0B8FF404605F065FD88B10121404657
:100F300005F01AF90CE0484605F0F8FF804628460F
:100F400000F0CAFF0090C0F88080684601F002F807
:100F50000121284600F039F9B8F1000FACD100E0CA
:100F60000EE00020E060A7E75FEA0A7027D4E0689F
:100F7000C06820B3007A10B3284605F08BFF1EE04E
:100F8000E668E6B12946706806F0CBFA20B1012187
:100F900028460CF0E8F912E0002128460CF0E3F9AD
:100FA0002946306806F0ACFA48B1284600F094FFB4
:100FB00003903168C0F8801003A800F0CBFF2146F1
:100FC000284605F042F800288CD0204605F064FB46
:100FD00072E7284600F080FF0090703000F0CEFEEF
:100FE0006846EAE7F0B587B0B0F908400DF10C0C9F
:100FF0000C9E87694568ACE8F000448A0025CDE97D
:1010000000150294B0F90C10B0F91050B0F90E4070
:10101000B0F90A00194410442B46224600F002F8A9
:1010200007B0F0BD2DE9F04F8BB09846DDE91556BD
:1010300091468A468346149F1A9C01F027FF60342C
:10104000314845F48055CDE90204CDE900754346A9
:101050004A465146584605F06BFA04004DD000F060
:101060003BFF30220490179905F0E4F904982822F8
:1010700026493430FFF778F8049819995C30234FEB
:1010800081600684002646620661083FC662796870
:10109000016004A800F05EFF05A9204600F0DCF81E
:1010A0001B4841F2827103960094CDE90110BDF90D
:1010B0001E00BDF91A10BDF91C20431ABDF9180015
:1010C0005B1C121A521C05F033FA06467868416818
:1010D00020468847204600F0FFFE0490866604A85C
:1010E00000F038FF42F20400054202D1204605F02C
:1010F00069FB2046189900F08CF802F0B5FD0BB0A2
:101100002046BDE8F08F0000010E000878010020A5
:101110001714000830B504468BB0006800F0DCFE00
:10112000009090F87C10E469006FC1F3C00508B12D
:1011300000F0D2FE0690E068029020690390A0883B
:10114000401EADF81000E089ADF812002089401C67
:10115000ADF81400608AADF81600BDF80800401C18
:10116000ADF80800BDF80A00401CADF80A00BDF853
:101170000C00401EADF80C000098406B02F06AFBBA
:10118000009808AA02A9B0F95A30069802F00EFE9B
:10119000009800EB8500806B04F004F8009800EBE9
:1011A0008500006C04F034F808AB02AA04A9069884
:1011B00005F080F8684600F0CDFE069810B106A84C
:1011C00000F0C8FE0BB0002030BD70B50D46040025
:1011D00009D001F05BFE294620460CF0C4F8BDE8BA
:1011E000704002F041BD70BD38B50C46054601F0B7
:1011F0004DFE55B1284600F06FFE0090046668462B
:1012000000F0A8FE284605F087FCBDE8384002F053
:101210002BBD7CB50D4604001DD001F037FE2046E5
:1012200000F05AFE0090006F0190684600F092FEB8
:10123000294601A803F046FB58B1204600F04CFEB9
:10124000009001990167684600F084FE204605F091
:1012500063FC02F009FD7CBD2DE9F34F85B000274A
:101260000C46B846059800F037FE0090C06D01218D
:10127000856805982A68904782462A680321059860
:10128000904704902A6802210598904703902A68A5
:101290000021059890470646009805F0E3FF834635
:1012A000009805F0E6FF8146009890F83210890614
:1012B00001D5B0F9588000F036F805460098C06EA8
:1012C00010B105F076FB074625806780A4F804A0DE
:1012D000049AABEB020006EB0802401E2A44208170
:1012E0003A44E280039BA9EB0302521E6281A4F8F8
:1012F0000CA020827019E681401E6082684600F0D2
:1013000029FEB4F90C000190B4F91000029002AA71
:1013100001A9059800F039F80198A081029820826F
:1013200007B0BDE8F08F10B50146002091F83220DB
:10133000920607D5B1F95400002803D1486B01F09B
:10134000B7FA801C10BD70B58AB00C46054600F097
:10135000C3FD0890C06D866808A800F0FBFD0095ED
:1013600034B1012C06D0022C0BD0032C04D10AE09E
:10137000182000E0162001907168684688470AB07E
:1013800070BD1520F7E71720F5E72DE9FC479046DB
:101390008946044600F0A0FD0090C16D05686846CE
:1013A0008E6800F0D7FD326800212046904706463F
:1013B000204605F09BFA2F1404462DB227E000F0DA
:1013C0008BFD0190B0F90010B0F90420B0F90230A3
:1013D000491B521BDB1BB34212D190F828000006B8
:1013E00007D5D8F8000088420ADB491EC8F800106B
:1013F00006E0D9F80000904202DC521CC9F8002037
:1014000001A800F0A7FD204605F08EFA0446002C46
:10141000D5D1BDE8FC872DE9F0430446406885B08E
:10142000064605F08EFA814600F056FD0090D0F891
:101430008080876C456E684600F08CFD2068172818
:1014400059D008DC0E2837D00F280BD0142852D0E2
:1014500015283AD14FE01E2818D01F2827D022285F
:1014600033D146E06FF07040874204D0384603F035
:1014700099FE00F007FE002D12D0D4E90212206878
:10148000CDE90106CDE9031201A822E0E0680028B9
:1014900006D05FEA080006D0B04504D005F0FAFC9B
:1014A00005B0BDE8F083304605F040FD16E021466A
:1014B000484604F0CAFDF3E7E0684168002904DD0E
:1014C00000680928EFD00A2805D0A5B12046C4F845
:1014D0000490A847E4E7304605F051FD044648462D
:1014E00000F0FAFC0090C0F88040684600F032FD41
:1014F000D6E7E760D4E7204605F0CEF8D0E7000055
:1015000010B5002002F084F96FF07F4002F08BF9F3
:10151000012002F0D9F9002002F0E4F9002002F0E5
:10152000EFF9002002F08AF90448006802F092F90D
:10153000BDE81040002002F09BB9000038000020F8
:1015400008B50620ADF8000003208DF80200002049
:101550008DF803006946024800F016F808BD000047
:101560000010014008B50620ADF8000003208DF8FA
:10157000020010208DF803006946024800F004F8CC
:1015800008BD0000001001402DE9F0410246002591
:101590000026002000230024002791F803C00CF04F
:1015A0000F0591F803C00CF0100CBCF1000F03D034
:1015B00091F802C04CEA050591F800C0BCF1000F9B
:1015C00031D0146800202BE04FF0010C0CFA00F32E
:1015D000B1F800C00CEA03069E4220D183004FF010
:1015E0000F0C0CFA03F7BC4305FA03FC4CEA0404A5
:1015F00091F803C0BCF1280F06D14FF0010C0CFA92
:1016000000FCC2F814C00AE091F803C0BCF1480F16
:1016100005D14FF0010C0CFA00FCC2F810C0401CC0
:101620000828D1D31460B1F800C0BCF1FF0F34DD3D
:10163000546800202EE000F1080C4FF0010808FA71
:101640000CF3B1F800C00CEA03069E4221D18300DE
:101650004FF00F0C0CFA03F7BC4305FA03FC4CEAFD
:10166000040491F803C0BCF1280F05D100F1080C67
:1016700008FA0CF8C2F8148091F803C0BCF1480FC6
:1016800007D100F1080C4FF0010808FA0CF8C2F875
:101690001080401C0828CED35460BDE8F0810000C3
:1016A00008B5C020ADF8000003208DF8020010201E
:1016B0008DF8030069460248FFF766FF08BD000089
:1016C00000080140416170470161704770B50C46E8
:1016D000054600F0D9F8A8682168C1626168016315
:1016E000A1684163490707D5D0E90021C0E900128C
:1016F000D0E90221C0E90212A1898184216900296F
:1017000000D0016270BD2DE9F0411E4617468846A3
:10171000054600F0B9F8AC686822414604F1F400CF
:10172000FEF722FD2846B8472846B047286980685A
:101730008047A062BDE8F08110B5044600F0A4F82F
:10174000A0680E494430114AC1650D4981650D49B3
:1017500001660D4981660021C166136843660C4B22
:10176000C0E91E315168416730F81E1C21F00301A9
:1017700020F81E1C0749816410BD0000DDD400085C
:101780001DD60008A5D4000825D10008840000203B
:1017900095D1000861D4000810B5044600F074F833
:1017A000A4680C488C340821E0630B4820640B4883
:1017B00060640B48A0640B48A0600B48E060206B9D
:1017C000606554F88C29204690471020A063074894
:1017D000206410BD55A0000889AB0008F11700086F
:1017E000F918000811D00008E5D80008B84401082D
:1017F000F8B5846815460F4694F8260080073FD553
:10180000D4F8E830204698470646D4F8EC302A460B
:1018100039462046984705462069B04201DD01203F
:1018200000E00020A169B14201DA012100E00021BD
:1018300008436169A94201DD012100E0002108435C
:10184000E169A94201DA012100E0002108430AD040
:101850006068401E00902368D4F89C705B1E0022D4
:1018600011462046B847D4F8A0302A4631462046D3
:101870009847D4F8941001B02046BDE8F0400847DE
:10188000D4F8A030F3E7000070B504468068002863
:1018900012D14FF4AE75284600F08CFAA06060B10A
:1018A0002A46002103F044F8A0680221C1840121E6
:1018B00001620249C0F8F01070BDFEE7C1180008CF
:1018C00010B590B0044620220A496846FEF74CFC49
:1018D00008492022203108A8FEF746FC606B5DF81D
:1018E0002010C4F8E81008A951F82000C4F8EC0052
:1018F00010B010BDAC2501082DE9F8438468984666
:10190000154694F826000F46800740D5D4F8E830F5
:10191000204698470646D4F8EC302A4639462046F9
:10192000984705462069B04201DD012000E0002013
:10193000A169B14201DA012100E000210843616997
:10194000A94201DD012100E000210843E169A9422B
:1019500001DA012100E0002108430AD06068401E3E
:1019600000902368D4F89C705B1E0022114620462C
:10197000B847D4F8A0302A46314620469847D4F8D4
:10198000982001B041462046BDE8F0431047D4F806
:10199000A030F2E72DE9F04FDFF824B191B04FF01D
:1019A000FF35BBF922200692DBF81C30BBF924A0DE
:1019B000DC69A189814206D8E289824203D3471AB1
:1019C000D4F8008012E0D4E9018100296ED00A88A1
:1019D00082426BD84D88854268D3801A496880B2AC
:1019E00001EB8000B0F90070B0F90250781C5DD0B6
:1019F000187EA27C014600FB02F9207CCDE908108C
:101A0000BBF92A60304603F019FCC0B20E902D4895
:101A1000A17C026807FB0980012702970592CDE9A6
:101A20000310DBF81C00DDE90832C17E807ECDE9C1
:101A300000015146069803F001F8681C18D046F0E2
:101A4000020003F0FBFB1F48A17C026805FB098034
:101A500002970592CDE90310DBF81C00DDE908329E
:101A6000C17E807ECDE900015146069802F0E6FF76
:101A7000DBF81C005D46417E007E814213D9022EB8
:101A800011D086F0040003F0D9FBE869027EC37E22
:101A9000857E02FB03A1437E099A0698534402FB0C
:101AA000050203F053F90E9803F0C8FBBBF82210AF
:101AB000627C1144ABF8221011B0BDE8F08F000039
:101AC0001C830020240100200348C069C06909B1BB
:101AD000027C0A60407C70471C8300200220088042
:101AE0007047C06982898A4202D8C2898A4210D26C
:101AF000806880B102888A420DD843888B420AD31D
:101B0000406800EB8100A0EB8200B0F900000028E3
:101B100001DB012070470020704700002DE9F043F1
:101B20002D4C034687B0E069B4F92A801946C06994
:101B300000F07FF800284BD041680088181A01EBAC
:101B4000C0054046AE7803F079FB81462348012268
:101B500001686868CDE90226CDE90401E069C27E2A
:101B6000817ECDE90012037E2A78B4F92410B4F9FD
:101B7000220002F063FFE069477E067EB7421CD96F
:101B8000C07E47434643B8F1020F16D000F041FE35
:101B9000804600F009FE01F046FEE269B4F9220039
:101BA0002978D27E01FB0202B4F92410CB1931440A
:101BB00003F0CCF8404601F036FE484603F03EFB09
:101BC000E269B4F922006978927E01FB0200608428
:101BD00007B0BDE8F08300001C8300202401002032
:101BE00030B50D4C05460B46E0692946C06900F04A
:101BF00020F800280FD041680088E4692A1A0120E3
:101C000000EBC200A47E085C6043002B03D011F8F7
:101C100032106143196030BD1C8300200120088010
:101C2000704700B5C06900F004F8002800D001201A
:101C300000BD06E002888A4202D842888A4202D267
:101C400080680028F6D170472DE9F04100250C4C42
:101C50002F460FE005EBC50000EB40062069682227
:101C600000EB8600001D0749FEF77EFA20696D1C17
:101C700040F82670A0688542ECDBBDE8F0810000EA
:101C8000E80000201C83002070B50F490D48086053
:101C9000084602F00FFE0C4D6C20143DAC68444326
:101CA000204600F087F822460021286102F040FE1D
:101CB00028690028FDD04FF0FF302860BDE8704053
:101CC00002F054B861C80008FC00002010B5040000
:101CD00009D001F0DBF8204605F0BCFE044601F017
:101CE000C3FF204610BD002010BD38B5054601F0E9
:101CF000CDF82846FFF7EAFF040009D000F0ECF821
:101D00002A460021009002F013FE684600F022F9F6
:101D100001F0AAFF204638BD024A106021F00300FE
:101D2000506070472800002010B5040016D001F064
:101D3000ADF80B48006B10F8341059B1022909D2E4
:101D4000042101EBC4014158486805F047FE2046D4
:101D50000BF04CF9BDE8104001F086BF10BD00004B
:101D600060820020002805D0034A916B016001B118
:101D700048609063704700006082002010B5044600
:101D800001F084F82068FFF7CFFF00202060BDE855
:101D9000104001F069BF000070B50D4606460024F2
:101DA00005E000BF06EB8400FFF7E8FF641CAC42CF
:101DB000F8DB70BD2DE9F04104460AF069FA2948C4
:101DC000E41C24F00305C16B2D1DA94200D90D466A
:101DD000846B13E054F8042CAA420ED184B121681C
:101DE00009B162684A60616809B122680A60826B61
:101DF000A24234D12168816331E02468002CE9D10A
:101E00008046416B80680F1857F8040C3E1A316801
:101E100069B17168814202D0134800F065FC00206E
:101E20000BF02CFA57F8040C3E1A3068B8B97068F9
:101E3000A84214DB3044441B30460BF0CFF9D8F8ED
:101E40000810491BC8F80810D8F810102944C8F821
:101E5000101070683146401B05F0C0FD20C42046BC
:101E6000BDE8F08160820020640B010810B50024F9
:101E70000AF00EFA0C490F2001EBC002126C1AB1E5
:101E800001EBC000006C08E0401EF5D508E0416899
:101E9000A14200D90C46806810B180680028F6D1B4
:101EA000A4F10C0010BD000060820020002138B1B8
:101EB0000449042202EBC000096B085841680C3940
:101EC000084670476082002002484169491C416110
:101ED000704700006082002005498A69521C8A61AF
:101EE000096B01EBC0010A78521C0A7000F04AB875
:101EF0006082002010B500F0C9FFFFF7B7FF642231
:101F00000849B0F5800F04D990FBF2F4C869444346
:101F100003E0C9694143B1FBF2F401F0A5FE20469C
:101F200010BD0000608200200549102805D94A68CC
:101F3000B0EB520F02D3500800E0102088607047C9
:101F40002800002002484169491E41617047000095
:101F5000608200200A4902680B6B52F8082C03EBE0
:101F6000C2021378022B03D38B690BB15B1E8B610A
:101F70001178491E11700021016008467047000069
:101F800060820020002806D00349042202EBC00032
:101F9000096B08580830704760820020F0B52D2684
:101FA0001C68B0F1004F08D0002500280DDA671C2E
:101FB0001F6026704042012408E0671C01251F6055
:101FC0006FF000402670491E01E00024091BC9B2D1
:101FD00002B3491EC9B21DE00C46491EC9B2944263
:101FE00005D10F4C27781C68661C1E6027700D4CAD
:101FF00054F8216090FBF6F4E4B2092C0CD804FBF1
:10200000160011B90DB1641CE4B21E683034771C9F
:102010001F6034700029DFD1196800200870F0BDFE
:10202000340000204C28010810B5002807DD0A689C
:102030002B24531C0B601470096800220A7010BD19
:1020400010B5C2B2CBB2D21A02D5C2F1000212B29E
:1020500093B2C0F30722C1F3072403FB03F3121B5F
:1020600001D5524212B2000C92B2A0EB114002FB19
:10207000023200B2002801DA404200B280B200FB16
:10208000002010BD10B50021084600F035FC40F6D8
:10209000FF725042BDE8104013460146AFF3008086
:1020A0002DE9FC411C4615460E46074600F0EEFEA3
:1020B000042003F0C3F880461148016C406C0F44C3
:1020C00006440D440444ADF80070ADF80450ADF87A
:1020D0000260ADF80640684605F0D2F807E02346F6
:1020E0002A463146384602F031FE05F08BF80028CA
:1020F000F5D1404603F0A2F801F0B6FDBDE8FC8141
:102100001C830020B0F90630B0F90420B0F90210A9
:10211000B0F90000FFF7C4BF2DE9F0411C46164698
:102120000D460746012B02DB0020BDE8F0811C2094
:10213000FFF740FE0028F8D00DB105610BE00A4A18
:1021400002EB8401C96C09B905E011460A68002A4E
:10215000FBD10969016184618682002101604160CF
:10216000C0E90217E1E700001C83002070B51D469E
:10217000FFF7D2FF040001D000F00EF8E06800681D
:1021800018B9034800EB85000465204670BD0000C7
:102190001C830020FFF7E6BD30B590B381690129AB
:1021A00030DA1C4A02EB8103D96C11B9D8642EE0F5
:1021B00011464A68002AFBD106E0CA68C468126862
:1021C0002468A24203DD09680029F6D11AE0C1B1F2
:1021D000CA68C56812682D68AA420CD1828A012A91
:1021E00005D008E01146D2681268A24203DB0A68F3
:1021F000002AF7D129B14A6832B110604A684260BA
:1022000003E0FFE7012030BDD86448600160002092
:1022100030BD00001C8300200A4A816902EB810165
:10222000CA6C824201D10268CA64416809B102687D
:102230000A60016809B142684A600021016041609A
:10224000704700001C830020012801DB002070473C
:10225000064901EB8000C06C04E0C16809680029F0
:10226000F5D000680028F8D1704700001C830020DA
:102270002DE9F8431D461646884604000CD0FFF7AA
:102280002BFE0090006807686846FFF763FE2B4648
:10229000324641462046B847BDE8F8832DE9F04173
:1022A000044601F007FD06191EE000BF00F022FA07
:1022B000052F00DD052700F0E9FD11480568FFF74F
:1022C00003FE2C0017D000BF01F0CEFC641EFBD132
:1022D000384601F0DFFC1DB100F0D8FD6D1EFBD1CA
:1022E000FFF730FE01F0C0FC01F0E4FC371A002FCC
:1022F000DCDCBDE8F081384601F0CCFCF0E7000002
:10230000F40000201FB503ABCDF80CD0FFF746FE5C
:10231000684600F031F81FBD70B50D460446FEF763
:102320002BF800F005FE2A1A521E04F1FF40B0F10E
:102330007C5F00D2521E002A00DA00222946204685
:10234000BDE87040D2B2002306F034BF7FB50C4622
:102350001546CDF80CD003A9FFF766FE002801DD75
:10236000641EE4B203AB2A462146FFF717FE684617
:1023700000F002F87FBD00002DE9FC47060077D091
:1023800000F084FD00F052FA3A4C8146B4F9228004
:1023900000F070FAA18C0746C81BA0843EE000BF85
:1023A00047F6FF71304602F053F982460146304647
:1023B00002F026F9054694F82C0000F003000128ED
:1023C0003ED0022838D00020618C6A46081A60840A
:1023D000ADF80000691E0844ADF80400A08CADF80B
:1023E0000200A9F101010844ADF80600514630464B
:1023F00001F08AFEBDF80200A0845146304601F08B
:102400000FFB064430780A281CD00D281AD0BDF8DE
:10241000000028446084307818B1761C3078002899
:10242000BED1A08C3844A084A08D20F00300A085EC
:10243000BDE8FC4701F018BC05EBD5704010C3E7C0
:102440002846C1E794F82C0000F0030001280CD0C6
:1024500002280AD0208C608430780A28DBD1A18C35
:1024600001EB0900A084D6E702E0A4F82280F3E79C
:10247000BDE8FC871C83002070B514460D46064657
:1024800000F004FD0448458484843046FFF774FF5F
:10249000BDE8704001F0E8BB1C8300202DE9F0414D
:1024A00007460A4815460E46B0F92C0040F00200D7
:1024B00001F018FA04462A4631463846FFF7DCFF99
:1024C0002046BDE8F04101F00DBA00001C83002059
:1024D00047F6FF73AFF300802DE9FC411F4690469D
:1024E0000D4606001BD0002400F0D0FC65B1284644
:1024F00004F08CFD040007D002462946684602F02D
:1025000014F9684604F082FD3B46424629463046AF
:1025100001F04EFE204604F079FD01F0A5FBBDE878
:10252000FC8100001CB50A460146684602F0B4F979
:1025300000F0ACFC2348BDF8002001880A44ADF847
:102540000020BDF8022080880244ADF80220BDF8CA
:1025500004201144ADF80410BDF806100844ADF88D
:102560000600684604F08CFE27E000BFBDF900407D
:102570000BE000BFBDF90210204602F08BFBBDF955
:102580000610204602F086FBA41CBDF90400A04200
:10259000F0DABDF902400AE0BDF90000214602F080
:1025A00079FBBDF90400214602F074FBA41CBDF9BF
:1025B0000600A042F0DA04F025FE0028D6D101F092
:1025C00053FB1CBD5C8300202DE9FC4115460E46E3
:1025D000074600F05BFC104C206C616C064405441F
:1025E0000F44ADF80060ADF80450ADF80270ADF8DE
:1025F0000670684604F044FE07E0206E2A4639461D
:1026000003683046984704F0FDFD0028F5D101F03D
:102610002BFBBDE8FC8100001C8300202DE9FC4160
:102620001C4616460D46074600F030FC1A49087E47
:102630000A6C496C401E17440D440C44391A164468
:10264000ADF800103118ADF80410291A2044ADF887
:102650000600ADF80210684604F012FE15E032469E
:102660002946384602F0EEFA32462146384602F054
:10267000E9FA621E691C384602F040FB621E691CC2
:10268000304602F03BFB04F0BDFD0028E7D101F02D
:10269000EBFABDE8FC8100001C8300207CB51446E9
:1026A0000D46064600F0F2FB0E48016C406C0E44ED
:1026B00005440444ADF80060ADF80460ADF8025084
:1026C000ADF80640684604F0DBFD06E022462946E8
:1026D000304602F013FB04F095FD0028F6D101F01E
:1026E000C3FA7CBD1C83002001490860FEE700009E
:1026F0005C00002010B5002400E0012400F004F884
:102700000028FAD1204610BD064810B50068002404
:1027100010B1804700B1012404F066F800B1012433
:10272000204610BD500000202DE9FC411C461546F6
:102730000E46074600F0AAFB1048016C406C0F449F
:1027400006440D440444ADF80070ADF80450ADF8F3
:102750000260ADF80640684604F092FD07E02346AB
:102760002A463146384602F0F1FA04F04BFD0028C3
:10277000F5D101F079FABDE8FC8100001C8300204E
:10278000B0F90630B0F90420B0F90210B0F9000039
:10279000FFF7CABF034901EB8000C06CC1688A6AB9
:1027A000082110471C83002010B500F06FFB02F0D9
:1027B00003FB02F04DFB044601F056FA204610BD23
:1027C00010B5044600F062FB05480021C06942686C
:1027D00020469047044601F047FA204610BD00000D
:1027E0001C83002070B50C46054600F04FFB0548E1
:1027F0002146C069426828469047044601F034FAF1
:10280000204670BD1C830020002801D004F046B88B
:10281000704710B500F03AFB02F0D4FA02F018FB52
:10282000044601F021FA204610BD000010B500F06A
:102830002DFB0348C069447E01F016FA204610BD06
:102840001C83002070B50C46054600F01FFB214696
:10285000284601F027FFBDE8704001F005BA10B529
:10286000044601F011FF01462046BDE8104001F08A
:10287000C7BE000010B5002400F008FB0B4890F81C
:102880002C1001F00C01042904D0082906D00C29D1
:1028900007D103E0C069047E641E02E0C069007EC7
:1028A000440801F0E1F9204610BD00001C8300201F
:1028B000017EC07E48437047034901EB8000C06C35
:1028C00000690068704700001C830020034901EB89
:1028D0008000C06C00694068704700001C830020C5
:1028E00010B5044600F0D2FA204609F001F804467B
:1028F00001F0BAF9204610BD70B50D46044600F04F
:10290000C5FA204608F0F4FF0446284608F0F6FF12
:10291000044301F0A9F9204670BD10B5044600F04B
:10292000B5FA204608F0EAFF044601F09DF920467A
:1029300010BD000010B501F0CDFB0B492E20087032
:1029400001F0BEF9094809F04FFAFFF79DF902F0CE
:10295000A1FA04460021084600F098FF04F054F85C
:10296000FFF772F9204610BD340000201C830020C0
:102970001CB5CDE900016946014800F003F81CBD13
:10298000952C00082DE9F8431E46174688468146D7
:10299000012500F07BFA48F2C040FFF7A6F90400D9
:1029A00009D03B4642464946009606F05FFC054684
:1029B0002046FFF7B9F901F057F92846BDE8F8833A
:1029C000F8B50546FFF788FA009000F5E04090F86A
:1029D00020636846FFF7BEFA002410E00123224678
:1029E0001946284605F066FA30B908232246022126
:1029F000284605F05FFA08B10120F8BD641CB44216
:102A0000ECDB0020F8BD2DE9F84F044647F290407A
:102A100047F22841261804EB010847F21041001F35
:102A2000651832684FF0010A4FF0000927189AB173
:102A3000287820B120460AF0F8FE85F8009047F289
:102A4000124047F29C41205C651805283ED2DFE821
:102A500000F049452E32270047F21140205C002843
:102A6000204603D009F018FD88B913E006F058F9A4
:102A700068B93968D8F8000081420BDC6946204605
:102A80000AF0C9FA18B99DF80000D92802D001202F
:102A9000BDE8F88F85F800A0D8F800003060C9E7DD
:102AA0003078C0070AD1204605F07AFC0CE02046B9
:102AB00005F0F0FB08E03078C00702D085F800A0F0
:102AC00004E0204605F050FB85F800903068401E79
:102AD00030603868401E38600020D9E7204605F095
:102AE000E7FAF1E7D8F800003168A0EB010847F2F7
:102AF00094402058FFF7F0F947F28841009062585F
:102B000002EBC80147F21442A25806E00B680360CA
:102B10004B68436040310830521E002AF6DC68469C
:102B2000FFF718FAD0E7000070B500F5E04405465D
:102B300094F82003042834D0284609F023FC28B157
:102B400094F8200384F83103002132E094F87833BC
:102B50002BB1002194F87B231AB1012002E001215E
:102B6000F8E7002094F87963B3421AD809B1C6B9DE
:102B700003E094F83133012B13D118B194F87A3370
:102B800093420ED121B108B10E4905E00E4903E090
:102B900008B10E4900E00E49284606F053FA002815
:102BA000CAD0012070BD681800F5E04080F83213EB
:102BB000491C94F831038842F5DC284605F03BF8BF
:102BC000002070BDD58C0008ED8B0008458B0008F7
:102BD000C98800082DE9F041044647F288402044A6
:102BE000016809B1FFF7B6F947F29440205808B1DF
:102BF000FFF79AF847F29840205808B1FFF794F889
:102C000047F27C40205808B1FFF78EF847F2844025
:102C1000205808B1FFF788F8002504F5E0460EE0DB
:102C200004EB051707F5E047D7F8C80308B1FFF72D
:102C30007BF8D7F8880308B1FFF776F86D1C96F893
:102C40002003A842ECDC47F20C40205808B1FFF703
:102C50006BF804F5E9442068002803D0BDE8F04192
:102C6000FFF762B8BDE8F081026811441378016093
:102C700003EB032000EB0340704730B5026802EB22
:102C80008101137854789578016043EA042040EA82
:102C9000054030BD30B5054600206C68E41A002CB4
:102CA00007DD944201D9104600E020462A681A4404
:102CB0000A6030BDF8B50C46064600F03BF8054604
:102CC00054B13046FFF708F90090818A2160C08A2C
:102CD00060606846FFF73EF92846F8BD38B50546FE
:102CE00000F028F8040022D1284609F08BF90400EE
:102CF0001DD12846FFF7F0F847F211410090415CE2
:102D000079B104F03DFF04000ED1009848F2A041D3
:102D1000405C48B96846FFF71DF9284606F00EF9F1
:102D200038BD09F02FFB04466846FFF713F920462B
:102D300038BD00007FB50025FFF7CEF801260090D2
:102D4000044680F820601A4860600020E06102A913
:102D5000204608F094FD18BB626803A920469047FE
:102D6000F0B99DF80800FF281AD19DF80C00D8286A
:102D700016D18DF8040001A900980AF04CF978B931
:102D80009DF80400C02807D0C12805D0C22808D16A
:102D9000009847F211414654009808F05CFC00B1DD
:102DA00001256846FFF7D6F804B0284670BD00003C
:102DB0007FB800082DE9F843044648F2AC402118DA
:102DC00048F2A8420868A25804F5E045104408609B
:102DD000002048F2B04209E095F82133022B0BD0D5
:102DE000D1F8003004EB8006401CB35095F8203336
:102DF0008342F1DC002634E0231803F5E0430E683B
:102E000093F82533C3F1030396FBF3F3EAE700BF1E
:102E100004EB061847F27C3108EB0107F868FFF76E
:102E20005BF80090BA6839684A4379684A430021E0
:102E300001F07EFD6846FFF78DF847F2BC3108EBE4
:102E40000107F868FFF748F80090BA6839684A4304
:102E500079684A43002101F06BFD6846FFF77AF874
:102E6000761C95F82003B042D2DC47F2FC301022E9
:102E70000021204401F05CFD47F28C41E08A605063
:102E80000020091D6050BDE8F883000070B5264C95
:102E9000E06820B100F00BFF6168884204D000F0C8
:102EA00066FF00F004FF6060E068401CE0600128FD
:102EB00031D100250DE000BF00F0F9FE05EBC501A2
:102EC000226901EB410152F82110814205D019B36A
:102ED0006D1CA0688542EFDB0025206885421AD072
:102EE000002817DB00EBC000216900EB400001EB7C
:102EF0008000001D68220D49FDF736F905EBC5007D
:102F0000216900EB400001EB8001091D68220748A0
:102F1000FDF72AF9256070BD05EBC50101EB410104
:102F200042F82100D9E70000E80000201C830020BF
:102F300010B5011E4FF0010001DD0A4600E04A42D3
:102F4000064B00E0401C53F82040944201D80A2868
:102F5000F8DB002900DA401C10BD00004C280108F5
:102F60001CB5040003D10E48446D002C16D0FFF7A9
:102F70008DFF2046FEF7B0FF009044696846FEF7DB
:102F8000E9FF4CB12046FEF7A7FF019081688968F0
:102F9000884701A8FEF7DEFF00F066FE1CBD0000BA
:102FA0001C83002001490A4600F002B801F0FFFF2F
:102FB0002DE9FE4315460C4607003FD0FFF766FF9C
:102FC000002000F03BFC80461D48466D3846FEF769
:102FD00083FF029000F0FCFB40F6FF70001904D163
:102FE0000298B0F90440B0F906500298611E0289B7
:102FF000ADF800401144ADF804104189681E084442
:10300000ADF80250ADF8060003F02CFA02A8FEF766
:10301000A1FF684604F034F906E02A462146384606
:1030200000F008FB04F0EEF80028F6D1304600F07E
:1030300055F9404600F002FC00F016FEBDE8FE83A4
:103040001C8300202DE9FE4F1F469046894682468C
:1030500000250C9EFFF71AFF1348417C00EB81000E
:10306000C46CE0680068042803D02468002CF8D100
:1030700000E01CB90846FFF7E7F804460121E068C4
:10308000C26A2046904750B121690096CDE90101FE
:103090003B4642464946504600F0B8F9054600F026
:1030A000E3FD2846BDE8FE8F1C83002038B50400F0
:1030B0001BD0FFF7EBFE0D48406DA04201D100F0A0
:1030C00087FB2046FEF708FF0090406908B100F03A
:1030D000B4FD00980068FFF75DF86846FEF73AFF18
:1030E0002046FEF721FE00F0BFFD38BD1C83002006
:1030F0002DE9FF4F83B0434CDDF840B098468A4637
:10310000070029D002A901A8FFF79CFBB7F90060CE
:10311000002E00DA0026B7F90250002D00DA002553
:10312000A146607C01F07AFE01990144491EB7F97D
:10313000040009F0EAFA044699F8110001F074FE5F
:1031400002990144491EB7F9060009F0DEFAA71BEF
:103150007F1C441B641C09E000263546607C01F09E
:103160005DFE0746607C01F05FFE0446B8F1000F8B
:1031700001D1C4F10008002F01DD002C03DC002088
:1031800007B0BDE8F08F43463A4629463046CDF8B1
:1031900000B0FFF757FF5FEA000909D000F060F8C0
:1031A0008046484600F09AF80027DFF85CB01FE040
:1031B0005146059888470120E2E7E11B414502DAC4
:1031C000484600F06FF83FB1EA193146484600F032
:1031D000B1F84846FFF7C4FE514605988847DBF82A
:1031E000001009B1002088474846FFF7DBFE47443E
:1031F000A742E2DB4846FFF759FF002000F06EF8D7
:10320000BDE700001C8300202C01002038B505001C
:103210004FF0000411D0FFF739FE2846FEF75CFEA0
:103220000090006800698068804702F011FB044646
:103230006846FEF78FFE00F017FD204638BD38B512
:103240000446FFF723FE2046FEF746FE00F1180471
:1032500000906846FEF77EFE00F006FD204638BD71
:1032600038B504460025FFF711FE14B90748446D30
:1032700044B12046FEF730FE0090B0F90A5068468F
:10328000FEF768FE00F0F0FC284638BD1C830020E5
:1032900010B505F0F7F9002803D0BDE8104000F0A4
:1032A0007BB810BD38B50C46050003D10A48456D02
:1032B000002D0FD0FFF7EAFD2846FEF70DFE009027
:1032C000B0F90A10A14200DD44816846FEF742FED3
:1032D00000F0CAFC38BD00001C830020F8B506468B
:1032E000FFF7D4FD124C656D5EB10DB100F070FAC0
:1032F00003F0C2F93046FEF7EFFD0090616D19B1A1
:1033000006E000F065FA0EE0D4E90212C4E91612F4
:1033100066650068FEF740FF6846FEF71BFE01F099
:10332000F9FF01F069FF00F09FFC2846F8BD00009E
:103330001C8300207CB515460E46040003D11548B9
:10334000446D002C24D0FFF7A1FD2046FEF7C4FDFC
:103350002DB20090C58034B2848001F04DFF0098FA
:10336000406980B1FEF7B8FD00990190B1F90820DD
:1033700082802AB1B1F90A10C18009B10480458068
:1033800001A8FEF7E7FD6846FEF7E4FD00F06CFCDF
:103390007CBD00001C83002001490A4600F002B8F1
:1033A00001F0FFFF7FB515460C4606002DD0FFF754
:1033B0006DFD3046FEF790FD40F6FF710190091952
:1033C00003D1B0F90440B0F906500289611E1144DE
:1033D000ADF80840ADF80C104189681E0844ADF8FE
:1033E0000E00ADF80A5001A8FEF7B4FD02A803F0E4
:1033F00047FF06E02A462146304600F003F903F075
:1034000001FF0028F6D100F02FFC7FBD2DE9FF4F12
:1034100083B0DFF8DCB0DDE910601C46924600277F
:103420009BF811303A461299FEF776FE05005CD003
:1034300028698068804702F00BFA81460AFB09F18F
:10344000C91D4FEAD108FEF755FDF10705D1C11797
:1034500000EB9170801000EB4000002C06DC183867
:10346000B0FBF8F06442A04200DC0446F00707D14C
:103470000090DDE903012346524600F051FB074668
:10348000002C03DC2846FEF785FE2EE004FB08F046
:103490001830F10702D0FEF719FC01E0FEF725FC19
:1034A00006001BD0FEF718FD01900560039981808E
:1034B0000499C180A0F808A04481C0F80C80C0E93C
:1034C000049701A8FEF746FD1298AE6028619BF8AC
:1034D0001100A861304607B0BDE8F08F2846FEF71E
:1034E00059FE17B13846FEF71FFC0020F3E7000035
:1034F0001C8300202DE9F74F92B090468A4612981F
:10350000FEF7EAFC0B90B0F908100691B0F90A102A
:103510000D9100680069D0F804B00BA8FEF71AFD01
:10352000364C607C04EB8000C06CC1688A6A08215C
:1035300090478146182801D34FF02009607C04EBA6
:103540008000C06C0069079003C80C902C48814231
:1035500001D0012000E000201090002000F009FCC4
:10356000002847D1002635460FAB069C4746761CFF
:1035700012980193FFF763FE04FB05F100EB810253
:10358000234639465046CDF800B000F0B1FE0500A4
:1035900030D01098D0B1DDE906134A46284600F035
:1035A000E7FC98B9DDE906702C46D0F810C0BCF1F4
:1035B000000F05D0294604233A460846E04705E0B7
:1035C0000C992068884701C47F1EF9D10020CDE9FD
:1035D0000305059001200090CDE90109414603460D
:1035E00008F101085046069A01F028FA0D98401E8D
:1035F0000D90B8D115B0BDE8F08F00001C830020FD
:10360000934E0008F8B515460E460746FEF764FCD3
:10361000009000681621C068426A00209047044666
:103620006846FEF797FC002C03D02A463146384600
:10363000A047F8BDF8B515460E460746FEF74CFC08
:10364000009044696846FEF785FC3846FFF7DEFDCA
:103650000346082800DD2CB12A46314638460AF0D8
:10366000E3F9F8BD2A46314638460AF073FBF8BD47
:1036700010B5002821D009B30AB3B1F90040B2F95E
:1036800000309C4200DA23460380B1F90240B2F9CF
:1036900002309C4200DA23464380B1F90440B2F97B
:1036A00004309C4200DD23468380B1F90610B2F954
:1036B0000620914200DC1146C18010BD11460A6807
:1036C00002604968416010BD00280BD003880B449C
:1036D0000380838819448180418811444180C188D6
:1036E0001144C1807047000070B50025FFF7CEFB84
:1036F000094CD4E9002082420AD0D2E90056104693
:1037000008F024FB20603146284603F069FA0125C1
:1037100000F0AAFA284670BDDC0000202DE9FC412B
:10372000154CDDE90875B4F90860864200DD3046C5
:10373000B4F90C60964200DA3246824219DBB4F9E1
:103740000A608E4200DD3146B4F90E409C4200DA38
:1037500023468B420DDB00E02546EC68246824B14B
:10376000042C02D02C68002CF6D1CDE9007501F0B4
:1037700021FCBDE8FC8100001C830020B0F9022080
:10378000B1F906309A4213DCB1F90220B0F90630E3
:103790009A420DDCB0F90020B1F904309A4207DCFE
:1037A000B1F90010B0F90400814201DC012070473A
:1037B00000207047014668220148FCF7D5BC000094
:1037C0001C83002068220149FCF7CEBC1C8300202A
:1037D00010B5FFF75BFB01F0C9FC01F09BFD02F0A7
:1037E00041FEBDE8104000F03FBA000070B5074C44
:1037F0000546667CFFF74AFB1DB900206074FFF7A1
:10380000E7FF00F031FA304670BD00001C83002055
:1038100010B50446FFF73AFB204601F0C3FCBDE8B3
:10382000104000F021BA10B50446FFF72FFB2046E8
:1038300001F0EEFCBDE8104000F016BA10B50446E9
:10384000FFF724FB204601F0F9FC044600F00CFAD7
:10385000204610BD70B50446FFF718FB0348C56944
:1038600004B1C46100F000FA284670BD1C8300203A
:1038700070B50546FFF70AFB0348847E857600F0A5
:10388000F3F9204670BD00001C83002070B50C4683
:103890000546FFF7FBFA09482246058008480480E0
:1038A0000848417C00EB8100C06CC1680B6A294666
:1038B0009847BDE8704000F0D7B9000064000020D0
:1038C000660000201C83002070B50546FFF7DEFA75
:1038D0000348047E057600F0C7F9204670BD00005D
:1038E0001C83002070B50446FFF7D0FA0348B0F9F6
:1038F0002C50848500F0B8F9284670BD1C83002048
:1039000070B50446FFF7C2FA0348B0F92A5044855F
:1039100000F0AAF9284670BD1C8300200248006808
:10392000002800D0004770470401002002498A683F
:1039300002B98860FFF7F2BFDC00002010B5040078
:103940000ED0FFF7A3FA204609F06AFC204609F0E2
:10395000A1FF2046FEF7E8F9BDE8104000F084B969
:1039600010BD38B50C46050011D0FFF78FFA284678
:10397000FEF7B2FA0090C068204201D0012400E0B6
:1039800000246846FEF7E6FA00F06EF900E0012434
:10399000204638BD38B50546002028600648046832
:1039A00044B12046FEF798FA009000692860684606
:1039B000FEF7D0FA204638BD1802002038B50400C2
:1039C0004FF000000D46086011D02046FEF784FA43
:1039D0000090846844B16846FEF7BCFA2046FEF7C2
:1039E0007BFA0090006928606846FEF7B3FA20462B
:1039F00038BD00002DE9F041084E044605683068E6
:103A00000168284688470746306841682846884745
:103A1000284420603846BDE8F08100003C000020CA
:103A20002DE9F0410C4606460025064F05E03868B2
:103A300041683046884706440544641EF7D228464C
:103A4000BDE8F0813C0000202DE9F0411E46069CB7
:103A50001746884605463A46A8687F1C3346D0F884
:103A600004C041462846E047641EF4D1BDE8F08119
:103A700070B5B0F90040091BB0F904408C422CDD50
:103A800000F11404B0F902500069521B02FB00401F
:103A9000CA1800EBE104521ED010B0EBE10501F0B2
:103AA00007034FF0FF0102F0070221FA03F0C2F111
:103AB000070201FA02F1CEB221780FD001436D1E48
:103AC00004F8011B002D05DDFF2229462046FCF7E6
:103AD0006BFB2C4420783043207070BD3040014394
:103AE000217070BD10B5B0F90030B0F90240C91AAC
:103AF00000F114030069121B02FB003000EBE1002F
:103B000001F0070302788021D9400A43027010BDFA
:103B1000B0F90610026951431430FCF74CBB0000A9
:103B20002DE9F843804602F10F000011470003FB26
:103B300007F01C46154689461430FEF7D6F80600F5
:103B400018D0FFF7A3F93046FEF7C6F90090A0F8A9
:103B50000080A0F802908580C4800749816001211F
:103B6000818107616846FEF7F5F900F07DF830467F
:103B7000BDE8F8830020FBE73455010870B5B0F9C3
:103B80000660B0F904400B6800F11405964220DD90
:103B90000069A34202FB005000EBE30219DAA4F132
:103BA00001044FEAE400A0EBE30512F8010B03F077
:103BB000070400FA04F0C4B208E055B112F8014B52
:103BC00003F10803A5F1010523F00703002CF4D04D
:103BD00008E0002070BD00BF4FEA44604FEA106467
:103BE00003F101032006F7D5FF2C0AD0184605E0A3
:103BF0004FEA44644FEA146400F101006606F7D40A
:103C000000E0D81DC443640706D007E012F8014B5A
:103C1000FF2C0FD100F108006D1EF7D5A0EB0300BB
:103C200000F101000B6070BD4FEA44624FEA12647C
:103C300000F101002206F7D4F0E738B50546FFF79A
:103C400025F92846FEF748F900908189491E0CB2F3
:103C500084816846FEF77EF914B92846FEF764F8B9
:103C600000F002F838BD00000348C168491EC16079
:103C700001D100F07DB87047E800002010B54FF486
:103C800000410348FEF748F88020FEF74DF910BDCB
:103C900050020020044A1268111800BF024A12683C
:103CA0008A1A002AFADC70471400002070470120AD
:103CB00070470000014800687047000014000020B1
:103CC00038B50121142001F0AFFE1F20ADF800002F
:103CD00003208DF8020010208DF8030069461E486D
:103CE000FDF752FC4FF6FF70ADF8000003208DF891
:103CF000020010208DF8030069461848FDF744FCC7
:103D0000174800684FF47A72B0FBF2F1481EB0F128
:103D1000807F01D301201BE0481E4FF0E02250615C
:103D200050170F22002807DA13071D0E0D4B00F065
:103D30000F04241F1D5503E013071C0E0A4B1C54CF
:103D400000BF00204FF0E0229061072010610020AA
:103D500008B100BFFEE738BD001001400008014077
:103D60000000002018ED00E000E400E0704770471C
:103D700070470EB508B102AA00E00022002301A995
:103D8000684600F0F5FB0EBD074910B50C6918B187
:103D900001200861801E03E0002008616FF07F4071
:103DA00000F03AFE204610BDFC0100202DE9F04154
:103DB000984616460C4688B3FEF751FD074608F0B4
:103DC0000300012825D0022817D0B4F9005000BF05
:103DD000FEF72CFD014608F00C0004282BD00C281F
:103DE0001DD0B4F9020035807080EA19521E0844D3
:103DF000B280401EF080BDE8F081B4F90400B4F94F
:103E00000010401AC01B401C00EBD07001EB600595
:103E1000DEE7B4F90400C51B6D1CD9E710E0B4F966
:103E20000600B4F90220801A401A401C00EBD07042
:103E300002EB6000D7E7B4F90600401A401CD2E755
:103E40002068306060687060D5E7000010B5082A0F
:103E50000EDC0346012A18D0022A56D0042A76D056
:103E600010F8042B03F8012B491EF9D1012010BDD5
:103E7000102A08DC4FEA000230F8043B22F8023B2B
:103E8000491EF9D1F2E7002010BD10F8042BD2072B
:103E9000120E491E34D010F8044B491E04F00104E0
:103EA00042EA84122CD010F8044B491E04F001049D
:103EB00042EA441224D010F8044B491E04F00104D5
:103EC00042EA04121CD010F8044B491E04F001040D
:103ED00042EAC40214D010F8044B491E04F0010455
:103EE00042EA84020CD010F8044B491E04F001048D
:103EF00042EA440204D010F8044B04F001042243C7
:103F000003F8012B0029C0D1B0E710F8042B920769
:103F1000120E491E15D010F8044B491E04F003047C
:103F200042EA04120DD010F8044B491E04F00304B9
:103F300042EA840205D010F8044B04F00304224343
:103F4000491E03F8012B0029DFD18FE7FFE710F8A6
:103F5000042B1207120E491E05D010F8044B04F072
:103F60000F042243491E03F8012B0029EFD17DE7FE
:103F70002DE9F0411E680D460446082A09DC074673
:103F8000012A1AD0022A5BD0042A7DD0082A13D134
:103F90008DE0102A07DCD3F810C00746BCF1000FF3
:103FA00004D0022389E00020BDE8F08101CCB047B5
:103FB00027F8020B6D1EF9D18AE001CCB047C0078B
:103FC0004FEA10686D1E36D001CCB04748EA801029
:103FD00000F0FF086D1E2ED001CCB04748EA40101B
:103FE00000F0FF086D1E26D001CCB04748EA001053
:103FF00000F0FF086D1E1ED001CCB04748EAC0009B
:1040000000F0FF086D1E16D001CCB04748EA8000D2
:1040100000F0FF086D1E0ED001CCB04748EA40000A
:1040200000F0FF086D1E06D001CCB04740EA080042
:1040300000F0FF086D1E07F8018B002DBDD147E091
:1040400001CCB04780074FEA10686D1E16D001CC36
:10405000B04748EA001000F0FF086D1E0ED001CCFA
:10406000B04748EA800000F0FF086D1E06D001CC82
:10407000B04740EA080000F0FF086D1E07F8018B0A
:10408000002DDDD124E0FFE701CCB04700074FEA67
:1040900010686D1E06D001CCB04740EA080000F061
:1040A000FF086D1E07F8018B002DEDD110E0D3F84D
:1040B00010C0BCF1000F05D001230A460146384666
:1040C000E04705E001CCB04707F8010B6D1EF9D1C0
:1040D000012069E70A4810B5016900290ED10121C4
:1040E0000161FFF7CBFD01F04DFA05490548143198
:1040F0000860BDE81040084600F0DCBB10BD0000C1
:104100003400002025C800087CB5064626480D4628
:10411000006868B1002003F0B3F806E06A4629465B
:10412000304605F06BF803F06DF80028F6D17CBD41
:10413000106800901D4C50680190BDF80010B4F854
:1041400040000144ADF80010BDF80220B4F844105E
:104150000A44ADF80220BDF804201044ADF8040074
:10416000BDF806000844ADF80600684603F088F87C
:104170000DE000BFBDF800006084BDF80200A0841F
:104180006A462946304605F039F803F03BF8002826
:10419000F0D134F8220FE18B401A20806088618CC6
:1041A000401A60807CBD0000600000201C8300205D
:1041B0002DE9FF4F85B000249A4690460D46A14652
:1041C000DDF814B0FEF732FB064625B128680090F2
:1041D0006868019002E06846FEF716FB18F00C0FC5
:1041E00002D05546012713E0BDF902402DE02946D3
:1041F000059800F02DFA01466D1A0598FFF710FC9E
:1042000005990844059005A800F066FA10B97F1CCE
:10421000002DECD108F00C00042804D0082802D0AE
:104220000C2812D105E0BDF9060007FB1604641C3A
:104230000BE0BDF90600BDF90210401A07FB16009D
:10424000401C00EBD07001EB60045546CDF814B073
:1042500042E02946059800F0FBF907460146ED1BB0
:10426000059800F0CDF918F003010ED0012938D0DF
:1042700002290DD1BDF90410BDF90020891A091ACF
:1042800001EBD17102EB610101E0BDF9001089463B
:10429000164A401E4844A2F82290ADF80C00ADF832
:1042A00008909484A019401EADF80E00ADF80A40A5
:1042B00002AA39460598FFF727FF39460598FFF708
:1042C000AFFB059908440590FEF7B0FA044405A831
:1042D00000F002FA002801D1002DBAD109B0BDE8E2
:1042E000F08FBDF90410091A491CD0E71C83002087
:1042F0002DE9FF4F002093B004460146119021980C
:104300001D46914601600DAB002204A906A800F0ED
:104310002FF918B1002017B0BDE8F08F0D98854235
:1043200000DD0546404E0E95707C06EB8001C96CA1
:10433000059109690991FEF72DFA0890707CFEF746
:10434000C5FA3A498046884204D03949884501D0A7
:10435000012000E000200F90209959F8040B8847B5
:1043600083465FEA106A5AD0119858BB1398071910
:104370002D48B0F90800B84202DDC61B074600E030
:104380000026DDE9050101EB840101EB8601CDE9A1
:1043900000100E991398149B42180B92521E194646
:1043A0003846FFF7BBF901201190089818280ADA5F
:1043B0000698DDE9082300EB840000EB8600A91BCA
:1043C00000F038F80EE00F9860B1069800EB84001A
:1043D00000EB86060B98C71B41463068884701C62C
:1043E0007F1EF9D1BAF1FF0F0ED00698CAF1FF0275
:1043F00050F82410584600F01FFA049941F82400A0
:1044000021990120086005E00698049950F82400DD
:1044100041F82400641C6D1E9ED104987BE704992A
:1044200041F824B0ECE700001C830020934E000804
:10443000914E00082DE9F05F0C1E16DD5E68014606
:1044400000EB8405082A12DC611E012A26D0022A0C
:1044500046D0042A68D0082A07D1071917F8010D99
:10446000B04745F8040D641EF8D1BDE8F09F102A4E
:10447000FBDC5F693FB12246BC46BDE8F04F02233A
:104480005DF804EB604701EB440700BF37F8020D0D
:10449000B04745F8040D641EF8D1E6E700EBE100F3
:1044A0002D1F10F801A9814601F00707802020FA8E
:1044B00007F800BF0AEA0800C7F10701C840B04783
:1044C00045F804093FB17F1E4FEA4860000E804660
:1044D000641EEFD1C9E7072719F801A90120F6E703
:1044E00000EBA1002D1F01F0030710F801A9814680
:1044F0007900C02020FA01F84FF0060B0AEA080004
:10450000ABEB4701C840B04745F804093FB17F1EF7
:104510004FEA8860000E8046641EEFD1A5E70327AE
:1045200019F801A93846F6E700EB610001272D1FB5
:10453000A74310F801A98146B900F02020FA01F83C
:104540004FF0040B0AEA0800ABEB8701C840B04704
:1045500045F804093FB17F1E4FEA0870000E8046FF
:10456000641EEFD181E7012719F801A90F20F6E7B2
:104570002DE9F047204C06461F46206990468946A3
:10458000002540B90120206104F114011B48086096
:10459000084600F08FF9E06810B900F042FCE060D6
:1045A00007B138604EB1206830B9E0688000FDF78F
:1045B00001FC206000B901253060B9F1000F0AD07C
:1045C000606830B9E0688000FDF7F4FB606000B916
:1045D0000125C9F80000B8F1000F0AD0A06830B971
:1045E000E0688000FDF7E6FBA06000B90125C8F88F
:1045F00000002846BDE8F087E001002089C80008D7
:1046000073B5114A01A900981268904700240090E0
:10461000C0B10E490025C969496959B10A684AB152
:10462000019990477CBD6846FFF7E4F90546FEF71F
:10463000C7F804440198401E0190F4D5284600F0C4
:104640003FF8044420467CBDD80000201C83002095
:1046500073B50D460098002488B10A49C9694969B3
:1046600059B14A684AB1294690477CBD6846FFF770
:10467000C1F920B10A2802D0641CAC42F6DB204606
:104680007CBD00001C83002031B50024009808B9CF
:1046900005E0641C6846FFF7ADF90028F9D1204613
:1046A00038BD0000044AB2F9002002600348B0F9A6
:1046B00000000860704700006400002066000020D1
:1046C00038B5002469460094FEF78CF800998142C1
:1046D00000DD0C1A204638BD016811F8012B12B11B
:1046E0000A2A02D002E001207047016000207047D2
:1046F000B0F90030B1F90020934200DA0280B0F93D
:104700000230B1F90220934200DA4280B0F904305D
:10471000B1F90420934200DD8280B0F90620B1F99E
:1047200006108A4200DDC180704770B5B1F90040C3
:10473000B2F900309C4200DD23460380B1F90250FB
:10474000B2F90240A54200DD2C464480B1F9046074
:10475000B2F90450AE4200DA35468580B1F9061050
:10476000B2F90620914200DB1146C1809D4201DB77
:10477000A14201DA002070BD012070BD014602484F
:10478000407C00F003B800001C830020F8B501262F
:104790000F46054601284BDA264C5FB3012F02D0A5
:1047A000022F45D116E054F8250088B92846FDF7B8
:1047B0004BFD0090B8B3C0680D21426A684690472F
:1047C000020035D039460098904754F8250000265D
:1047D000401C2BE0FDF738FD009020B3C0680D2190
:1047E000426A68469047020022D0394600989047B6
:1047F00000261DE054F8250001280FD12846FDF7BA
:1048000023FD009050B1C0680D21426A6846904770
:10481000020003D0394600989047002654F825003E
:1048200010B1012101E003E00021401A44F8250005
:104830003046F8BDD400002070B5FF23B3EB116FF4
:1048400029D0C3B200F47F4500F47F04060E534321
:10485000554354435643C2F1FF00CAB202FB003233
:1048600001F47F4303FB005301F47F0505FB004483
:10487000090E01FB0065C2F307204FF47F4101EAF6
:104880001322090201EA14214FF07F43104303EA87
:1048900005430843184370BD0B88134403808B887D
:1048A0009B1A83804B8813444380C988891AC1802E
:1048B000704700000249CA684260C8607047000043
:1048C000340000202DE9F843076806468846002595
:1048D000384600F085F840B3404600F091F8441C9B
:1048E0003846FDF7E3FA84420CD1F4B13846FDF7BF
:1048F000F3FA224641460090FBF736FC6846FDF786
:1049000029FB11E02046FDF7E1F904000DD0FDF789
:10491000E3FA41460090FBF759FC6846FDF71AFBA5
:104920003046FDF72BFA346001252846BDE8F883B0
:1049300010B502E000F8011B521E0AB18307F9D13D
:10494000930818D001EB014402F0030204EB0424A5
:1049500005E0046044608460C46010301B1F042BB9
:10496000F7DA01E010C05B1E002BFBD103E000BFB3
:1049700000F8011B521E002AFAD110BD10B58307A2
:1049800002D520F8021B521E530810D001EB01443F
:10499000042B08DB046044608460C46010301B1F7B
:1049A000042BF7DA01E010C05B1E002BFBD1D2070D
:1049B00000D0018010BD000000B908A001B907A116
:1049C00002780B789A4207D110F8012F491C002A6F
:1049D000F6D10878002800D00120704700000000C0
:1049E00038B50D46012448B1FDF776FA2946009006
:1049F000FFF7E2FF04466846FDF7ACFA204638BDF3
:104A00004FF0FF3120B110F8012B491C002AFAD1D8
:104A10000846704700BFFEE702490A680860104672
:104A2000704700004C02002003494A7C01EB8201E0
:104A3000C96C0969096808471C8300202DE9F04FFB
:104A400005468DB07C48DDF860901A9C00681E46D3
:104A500017468C464FF0000878B11B99199ACDE99A
:104A60000441CDE90292DDE91612CDE90012046895
:104A700033463A466146284683E0DDE916010CEBF1
:104A80000603EA195B1E521E0843012807D0C9F12C
:104A9000080005900020CDF808C00A90C8E06749DA
:104AA000B1F90A80A8EB0C00002807DD361A002EA9
:104AB00068DDC446DDF8648000FB0844B1F90E00EF
:104AC000181A002802DD361A002E5BDDB1F90C0041
:104AD000101A002800DD3F1AB1F908200020AA4270
:104AE0003CDD501B554A3F1A4B46B2F90820521B79
:104AF0002A44B9F1080F28D007DC012B0DD0022B76
:104B000013D0B9F1040F29D117E0102B1FD0182BA7
:104B100020D0B9F1200F21D11CE020F0070204EBD6
:104B2000E004154400F0070018E020F0030204EB55
:104B3000A004154400F0030010E020F0010204EB93
:104B40006004154400F0010008E0044404E004EBB4
:104B5000400401E004EB800415460020002F11DD25
:104B60001B9A199BCDE90402CDE90234CDE9006915
:104B7000487C3B4601EB80006246C06CC1684C68D3
:104B80002946A0470DB0BDE8F08F17990298084458
:104B90000C902A49401E0090B1F90A2082423FDC65
:104BA0000846B0F90E100298814239DB4FF0000B35
:104BB000DA460395099431E0BBF1000F05D109985D
:104BC0004FF0080B10F8018B09900599ABEB090B1E
:104BD00038FA01F008FA09F101F0FF0803D117498A
:104BE000097C890714D4164909680A680B921B9A34
:104BF0000AB152F82000086016990398009B4218E9
:104C0000521E029900F0A2F80D490B98096808603D
:104C1000039916980AF1010A08440390BA45CBDBC0
:104C20000A98401C0A900C980290199804440A981B
:104C3000B042AADBA6E70000600000201C83002031
:104C400028010020F0B40C461149B1F90A30A34202
:104C50001CDCB1F90E30A34218DBB1F908308342F5
:104C600000DD1846B1F90C30934200DA1A46824250
:104C70000CDB4B7C01EB83011346CD6C2246E968CB
:104C80008E6801462846B446F0BC6047F0BC7047C9
:104C90001C8300200A46174930B4B1F90A30934208
:104CA00025DCB1F90E30934221DBB1F908308342A3
:104CB0001DDCB1F90C30834219DB097CCB070D49AF
:104CC0004C7C01EB840107D0CB6CD968CC690146E0
:104CD000A44630BC18466047CC6C074BE1681B68A3
:104CE0008D6901461B682046AC4630BC604730BC2D
:104CF000704700001C83002028010020F0B40C46FF
:104D00001149B1F9083083421CDCB1F90C308342FF
:104D100018DBB1F90A30A34200DD1C46B1F90E30B0
:104D2000934200DA1A46A2420CDB4B7C01EB830172
:104D30001346CD6C2246E968CE6801462846B44643
:104D4000F0BC6047F0BC70471C83002038B5134CA2
:104D5000B4F90850854200DD2846B4F90C5095425C
:104D600000DA2A46824217DBB4F90A508D4200DD90
:104D70002946B4F90E509D4200DA2B468B420BDBDC
:104D80000093637C04EB8303DC6CE3681D691346CA
:104D90000A4601462046A84738BD00001C83002073
:104DA00002480821407C06F03FBB00001C83002025
:104DB000082106F039BB0000014800680068704710
:104DC0002401002001480068006870472801002085
:104DD00002480921407C06F027BB00001C8300200C
:104DE000092106F021BB10B500242046FDF72CFA5E
:104DF00000B10124204610BD0148407C00F002B8FB
:104E00001C83002010B5FDF71FFA002805D0C168EB
:104E1000CA6ABDE810400221104710BD032106F008
:104E200003BB032006F092BB042106F0FDBA00008C
:104E300002480121407C06F0F7BA00001C830020E4
:104E400002480221407C06F0EFBA00001C830020DB
:104E500003494A7C01EB8201C96C0969496808472A
:104E60001C83002010B5084A084B00F01F01C0F356
:104E70004514C0F3C420515C1B5D105C01EB0321A1
:104E800001EB004010BD0000EC2501080C260108D4
:104E90007047704738B500F0AFF900F037F80400FC
:104EA0000DD1FDF7D1F9009048B1C0680C21426ADC
:104EB00068469047010026D000988847044600F0D5
:104EC0003FF800252846FDF7BFF90090C8B12846F5
:104ED000FEF78CFC042000F0B1F940F6FF720021CF
:104EE00013460846FFF732FF002000F0A7F90098AC
:104EF0000E21C068426A68469047010001D00098C0
:104F00008847204638BD012038BD000010B50A4C46
:104F1000606860B920688000FCF74CFF606040B1B9
:104F200004F10801054808600846FFF7C3FC0020AB
:104F300010BD012010BD00001401002075C800083C
:104F40002DE9F041FFF74FFF0746002529E02846ED
:104F5000FDF77AF920B32846FEF748FC804628463C
:104F6000FFF726FF082818DC1048114900EB8500E0
:104F7000C06C0069884210D02846FFF731FF064612
:104F8000002408E0E0B2FFF763FF0246E1B22846E2
:104F900000F05AF9641CB442F4DB4046FEF726FCEC
:104FA0006D1CBD42D3DBBDE8F08100001C830020F6
:104FB000EC4401082DE9FC5F8346DDE90C40164610
:104FC000C0689A460F46D0F81480426A6AB101213F
:104FD0000DA89047050008D0CDE900A433463A4615
:104FE00059460D98A847BDE8FC9F5F48407CFDF7F7
:104FF000D1FB0090082801DC012004E0102801DC2E
:10500000022000E0042081460025A9E04846B9F1CD
:10501000010F05D002286FD0B9F1040F6DD18EE0D9
:105020000098092864D2DFE800F063052649496347
:10503000636369005846D94617E001463A4643463D
:105040000D989847C5F1070188404FF67F72217887
:10505000EA40114001436D1C217004EBE50425F08A
:105060000700054109F101008146B145E5DD7F1CDE
:105070005745DFDDB7E75846D94619E001463A46BD
:1050800043460D9898470621A1EB450188406B00E7
:105090004FF63F722178DA40114001436D1C2170B8
:1050A00004EBA50425F00300054109F10100814648
:1050B000B145E3DD7F1C5745DDDD94E7584614E03C
:1050C00001463A4643460D9898470421A1EB8501D5
:1050D00088402178AB000F229A4011400143217093
:1050E00001982C4485F00105401C0190B042E7DD99
:1050F0007F1C574594DD76E710E030E05D4607E021
:105100003A46294643460D98984720706D1C4C44FA
:10511000B542F5DD7F1C5745F0DD64E75846CDF814
:1051200004B009E001463A4643460D98984720806E
:1051300001984C44401C0190B042F3DD0FE058460A
:10514000CDF804B009E001463A4643460D98984729
:10515000206001984C44401C0190B042F3DD7F1C5C
:1051600057457FF753AF3EE71C83002010B50C4C2A
:10517000607C04EB8000C06C40B1C1680968042900
:1051800001D00068F8E708B1FDF746F80020606537
:10519000034808306061BDE8104000F02DB8000001
:1051A0001C83002001490968496808471001002054
:1051B0000449097C490701D5034900E0034909680E
:1051C000086070471C830020280100202401002073
:1051D0001CB504460748417C00EB8100C06CC168E7
:1051E0000A6B6946904703486A4621460830FFF734
:1051F0009CFA1CBD1C8300200448417C00EB81000C
:10520000C06CC1680A6B0149083110471C8300203B
:105210000149096809680847100100200449097C10
:10522000490701D5034900E0034909680860704750
:105230001C83002024010020280100200149096866
:105240008968084710010020F8B515460E4601246C
:10525000FCF7FAFF009058B1C0681021426A684616
:105260009047030004D02A4631460098984700240E
:105270002046F8BD13460A460F4930B4B1F908403C
:10528000844216DCB1F90C40844212DBB1F90A40C9
:1052900094420EDCB1F90E4094420ADB4C7C01EBE7
:1052A0008401CC6CE1688D6901462046AC4630BC77
:1052B000604730BC704700001C830020F8B51546DD
:1052C0000E460124FCF7C0FF009058B1C0680B21C6
:1052D000426A68469047030004D02A463146009847
:1052E000984700242046F8BDF8B515460E4601241F
:1052F000FCF7AAFF009058B1C0680A21426A6846CC
:105300009047030004D02A4631460098984700246D
:105310002046F8BD10B5064C206BFFF785FBFFF764
:105320007DFF606BFFF780FBBDE81040FFF740BFDB
:105330001C83002010B504210F48FCF7C3F900209E
:105340000E49086008210C48FCF7BCF901210A4805
:10535000FCF7B8F909480068C4B201210648FCF717
:10536000B3F908210448FCF7AFF900200349091DEF
:105370000860204610BD00000010014008080140F0
:1053800010B504210F48FCF79FF900200E49086072
:1053900008210C48FCF796F901210A48FCF792F91C
:1053A00009480068C4B201210648FCF78DF90821BC
:1053B0000448FCF789F900200349091D08602046CC
:1053C00010BD0000001001400808014070B50546FE
:1053D0000C4604211148FCF777F91BE00020104926
:1053E000086008210D48FCF76DF901210B48FCF716
:1053F00069F90B480068287001210848FCF764F936
:1054000008210648FCF760F900200549091D0860DD
:105410006D1C641E002CE1D170BD00000010014025
:105420000808014070B505460C4604211148FCF7F8
:105430004BF91BE000201049086008210D48FCF7DB
:1054400041F901210B48FCF73DF90B480068287031
:1054500001210848FCF738F908210648FCF734F91F
:1054600000200549091D08606D1C641E002CE1D157
:1054700070BD0000001001400808014010B504464E
:1054800004210B48FCF71EF90A480460082108486B
:10549000FCF718F902210648FCF714F90221044828
:1054A000FCF712F908210248FCF70EF910BD0000C4
:1054B000001001400C08014010B5044604210B48BF
:1054C000FCF702F90A48046008210848FCF7FAF8DA
:1054D00002210648FCF7F6F802210448FCF7F4F82C
:1054E00008210248FCF7F0F810BD00000010014050
:1054F0000C08014070B505460C4604210D48FCF728
:10550000E1F814E015F8010B0B490860082109487F
:10551000FCF7D8F802210748FCF7D4F80221054827
:10552000FCF7D2F808210348FCF7CEF8641E002CE3
:10553000E8D170BD001001400C08014070B505466F
:105540000C4604210D48FCF7BFF814E015F8010BD8
:105550000B49086008210948FCF7B4F80221074804
:10556000FCF7B0F802210548FCF7AEF80821034823
:10557000FCF7AAF8641E002CE8D170BD00100140B1
:105580000C08014010B5A0B0142101A8FAF713FED1
:1055900000231A4617491848FCF7E8FD04464FF463
:1055A000A072F0210020FFF789FE4FF4A072F021D5
:1055B0000020FFF799FE1148069011480790114806
:1055C00008901148099011480A9011480B90114811
:1055D0000C9011480D90114B114A06A92046FCF77A
:1055E00092F80420039001A92046FCF76FF820B040
:1055F00010BD0000A0090108782501087D540008AD
:10560000B9540008F55400083D550008355300080A
:1056100081530008CD53000825540008991700084D
:10562000391700082DE9F04106460C461746012CB3
:1056300004D106F013FC0020BDE8F0814FF0FF35E7
:1056400000BF00BF2846F7E72DE9FF4F8DB0664841
:105650001746DDF870901E9E209A00681D460024B3
:1056600088B11D9B1F9ACDE90293CDE90462DDE963
:105670001A23CDE9002304682B463A460D98A0472B
:1056800011B0BDE8F08F0D9801EB050CC319DDE9F1
:105690001A085B1E40EA0800ACF1010C012806D094
:1056A000C9F108004FF0000B0191059098E04F48B8
:1056B000B0F90A80A8EB0104002C07DD2D1B002D9A
:1056C000DEDD4146DDF8748004FB0866B0F90E406B
:1056D000ACEB0404002C02DD2D1B002DD0DDB0F955
:1056E0000C401B1B002B00DDFF1A0D9B9C1AB0F910
:1056F0000830A3420DDDA3EB040C0CEB02039A1A55
:1057000022F007021444A7EB0C0706EBE30603F0B4
:105710000702002FB4DD1F9BDDF874C00396CDE9AE
:1057200004238DE82012427C3B4600EB8200C06CD3
:10573000C26855680A462146A847A1E71B99019807
:1057400008440C902949401E0390B1F90A20824276
:1057500040DC0846B0F90E10019881423ADB4FF068
:10576000000A0D980996D046009031E0BAF1000F7A
:1057700005D109984FF0080A10F8014B09900599D6
:10578000AAEB090A34FA01F004FA09F4E4B203D1ED
:105790001649097C890715D4154909680A680B92CE
:1057A0001F9A0AB152F82000086000991A98039BCA
:1057B0000A18DDE90001521EFFF7C8FA0C490B98E0
:1057C0000968086000991A9808F1010808440090D7
:1057D000B845CBDB0C9801901D980BF1010B0644EA
:1057E000AB45ABDB4CE70000600000201C830020D1
:1057F00028010020002818D0410817D0810817D0B0
:10580000C10817D0010917D0410917D0010A17D0D4
:10581000410A17D0010B15D0C10B13D0010C11D0C8
:10582000810C11D0000E11D020207047012070474C
:1058300002207047032070470420704705207047FE
:1058400008207047102070471220704718207047BA
:1058500000B50022FFF7CEFF012804D0811E0629E3
:1058600003D808220BE0012209E0A0F10901072971
:1058700001D8102203E011380F2800D8202210464A
:1058800000BD000088B000BF454DFDF753F80B2365
:105890001A4642F2E4214348FDF76AF84FF4FA70E1
:1058A000FCF7FCFC4FF47A70FCF7F8FC0020FDF7E5
:1058B000AFFFFCF7E7FBFFF7BBFA0446FFF7C0FAC0
:1058C0003948FDF7C7FF3948FDF7ADFF264604EB21
:1058D000D6704110142236A0FCF7E0FD4FF4000012
:1058E000FDF7A1FF04EBD6704110C82234A0FCF7ED
:1058F000D5FD53E0FCF7C6FB0020FDF789FF2B48E0
:10590000FDF791FF00F064FA0646324630A1684682
:1059100008F042FC4FF49670FCF7C0FC1E221D21DB
:105920006846FCF7BBFD4FF49670FCF7B7FC0B2202
:10593000114629A0FCF7A0FD6420FCF7D1FF6420EC
:10594000FCF7EBFF28A0FCF717FD00F09BFA0646DA
:10595000FAF70DFD05464FF49670FCF79FFC092100
:105960002846FCF7D9FC6420FCF7BAFF9620FCF728
:10597000D4FF20A0FCF700FD00F0E4FA0646FAF799
:10598000F6FC05464FF49670FCF788FC0921284682
:10599000FCF7C2FC4FF49670FCF780FCAAE700000D
:1059A000DFE9F64268E600085425010800FFFF0021
:1059B0007777772E6B65696C2E636F6D0000000042
:1059C0007777772E7365676765722E636F6D00005A
:1059D00025640D0A000000004755495F4469737053
:1059E000466C6F61743A0A00546F756368583A20C8
:1059F00020202000546F756368593A202020200031
:105A000000BFFEE77047704729B1064A526902435A
:105A1000044B5A6104E0034A52698243014B5A61C4
:105A2000704700000010024029B1064A9269024303
:105A3000044B9A6104E0034A92698243014B9A61E4
:105A4000704700000010024029B1064AD2680243A4
:105A5000044BDA6004E0034AD2688243014BDA6007
:105A6000704700000010024038B544680546014602
:105A7000204600F0EAFA002814D028680C2812D03A
:105A80000E2815D00F2822D125462046FCF724FAEF
:105A90000090806C04686846FCF75CFA002C01D02A
:105AA0002846A04738BD2946204606F039FF0EE0BB
:105AB000E9682046D1E90021002908DD102A04D038
:105AC000122A04D100F090F801E000F06DF82846A9
:105AD000BDE8384000F0E0BDF0B585B0B0F9085041
